{
  "contractName": "CrowdFunding",
  "abi": [
    {
      "inputs": [
        {
          "internalType": "uint256",
          "name": "_targetETH",
          "type": "uint256"
        },
        {
          "internalType": "uint256",
          "name": "_durationInMinutes",
          "type": "uint256"
        }
      ],
      "stateMutability": "nonpayable",
      "type": "constructor"
    },
    {
      "inputs": [
        {
          "internalType": "address",
          "name": "",
          "type": "address"
        }
      ],
      "name": "contributors",
      "outputs": [
        {
          "internalType": "uint256",
          "name": "",
          "type": "uint256"
        }
      ],
      "stateMutability": "view",
      "type": "function",
      "constant": true
    },
    {
      "inputs": [],
      "name": "deadline",
      "outputs": [
        {
          "internalType": "uint256",
          "name": "",
          "type": "uint256"
        }
      ],
      "stateMutability": "view",
      "type": "function",
      "constant": true
    },
    {
      "inputs": [],
      "name": "manager",
      "outputs": [
        {
          "internalType": "address",
          "name": "",
          "type": "address"
        }
      ],
      "stateMutability": "view",
      "type": "function",
      "constant": true
    },
    {
      "inputs": [],
      "name": "raisedAmount",
      "outputs": [
        {
          "internalType": "uint256",
          "name": "",
          "type": "uint256"
        }
      ],
      "stateMutability": "view",
      "type": "function",
      "constant": true
    },
    {
      "inputs": [],
      "name": "targetAmount",
      "outputs": [
        {
          "internalType": "uint256",
          "name": "",
          "type": "uint256"
        }
      ],
      "stateMutability": "view",
      "type": "function",
      "constant": true
    },
    {
      "inputs": [],
      "name": "contribute",
      "outputs": [],
      "stateMutability": "payable",
      "type": "function",
      "payable": true
    },
    {
      "inputs": [],
      "name": "withdraw",
      "outputs": [],
      "stateMutability": "nonpayable",
      "type": "function"
    },
    {
      "inputs": [],
      "name": "getRefund",
      "outputs": [],
      "stateMutability": "nonpayable",
      "type": "function"
    },
    {
      "inputs": [],
      "name": "timeLeft",
      "outputs": [
        {
          "internalType": "uint256",
          "name": "",
          "type": "uint256"
        }
      ],
      "stateMutability": "view",
      "type": "function",
      "constant": true
    }
  ],
  "bytecode": "0x608060405234801561001057600080fd5b5060405161069938038061069983398101604081905261002f91610076565b600080546001600160a01b0319163317905561005382670de0b6b3a76400006100b0565b60015561006181603c6100b0565b61006b90426100cd565b600255506100e09050565b6000806040838503121561008957600080fd5b505080516020909101519092909150565b634e487b7160e01b600052601160045260246000fd5b80820281158282048414176100c7576100c761009a565b92915050565b808201808211156100c7576100c761009a565b6105aa806100ef6000396000f3fe6080604052600436106100865760003560e01c8063481c6a7511610059578063481c6a751461010d578063953b8fb814610145578063b2d5ae441461015b578063c59ee1dc14610170578063d7bb99ba1461018657600080fd5b80631300a6d11461008b5780631f6d4942146100b357806329dcb0cf146100e05780633ccfd60b146100f6575b600080fd5b34801561009757600080fd5b506100a061018e565b6040519081526020015b60405180910390f35b3480156100bf57600080fd5b506100a06100ce366004610502565b60046020526000908152604090205481565b3480156100ec57600080fd5b506100a060025481565b34801561010257600080fd5b5061010b6101b2565b005b34801561011957600080fd5b5060005461012d906001600160a01b031681565b6040516001600160a01b0390911681526020016100aa565b34801561015157600080fd5b506100a060015481565b34801561016757600080fd5b5061010b6102bd565b34801561017c57600080fd5b506100a060035481565b61010b610408565b6000600254421061019f5750600090565b426002546101ad9190610548565b905090565b6000546001600160a01b0316331461022a5760405162461bcd60e51b815260206004820152603060248201527f54696b2070726f6a656b746f206b7572656a61732067616c6920696e6963696a60448201526f3ab7ba349034b9b6b7b5b2b534b6b09760811b60648201526084015b60405180910390fd5b600154600354101561027e5760405162461bcd60e51b815260206004820152601f60248201527f46696e616e73696e69732074696b736c6173206e6570617369656b7461732e006044820152606401610221565b6000805460405147926001600160a01b039092169183156108fc02918491818181858888f193505050501580156102b9573d6000803e3d6000fd5b5050565b6002544210156103075760405162461bcd60e51b815260206004820152601560248201527425b0b6b830b734b530903230b9103b3cb5b9ba309760591b6044820152606401610221565b6001546003541061036b5760405162461bcd60e51b815260206004820152602860248201527f54696b736c61732070617369656b7461732c206772617a696e696d6173206e6560448201526733b0b634b6b0b99760c11b6064820152608401610221565b336000908152600460205260409020546103c75760405162461bcd60e51b815260206004820181905260248201527f4a7573206e657361746520706172656d65732073696f2070726f6a656b746f2e6044820152606401610221565b33600081815260046020526040808220805490839055905190929183156108fc02918491818181858888f193505050501580156102b9573d6000803e3d6000fd5b60025442106104635760405162461bcd60e51b815260206004820152602160248201527f4c61696b617320626169676573692c2072656d7469206e65626567616c696d616044820152601760f91b6064820152608401610221565b600034116104c35760405162461bcd60e51b815260206004820152602760248201527f506572766564616d612073756d61207475726920627574692064696465736e65604482015266103732b490181760c91b6064820152608401610221565b33600090815260046020526040812080543492906104e2908490610561565b9250508190555034600360008282546104fb9190610561565b9091555050565b60006020828403121561051457600080fd5b81356001600160a01b038116811461052b57600080fd5b9392505050565b634e487b7160e01b600052601160045260246000fd5b8181038181111561055b5761055b610532565b92915050565b8082018082111561055b5761055b61053256fea264697066735822122016b902f3b460a95a957e00875589ddcce7eb777b351d088611c916cf0991340e64736f6c63430008150033",
  "immutableReferences": {},
  "source": "// SPDX-License-Identifier: MIT\r\npragma solidity ^0.8.0;\r\n\r\ncontract CrowdFunding {\r\n    \r\n    // 1. Kintamieji (State Variables)\r\n    address public manager;          // Projekto krjo adresas\r\n    uint public targetAmount;        // Finansinis tikslas (Wei formatu)\r\n    uint public deadline;            // Laiko pabaigos yma (timestamp)\r\n    uint public raisedAmount;        // Kiek i viso surinkta\r\n    \r\n    // Mapping saugo informacij, kiek kiekvienas rmjas perved\r\n    mapping(address => uint) public contributors;\r\n\r\n    // 2. Konstruktorius - pasileidia tik vien kart, kuriant sutart\r\n    // _targetETH: kiek ETH norime surinkti\r\n    // _durationInMinutes: kiek minui galios kampanija\r\n    constructor(uint _targetETH, uint _durationInMinutes) {\r\n        manager = msg.sender; // Tas, kas \"deploja\" kontrakt, tampa valdytoju\r\n        targetAmount = _targetETH * 1 ether; // Konvertuojame ETH  Wei (maiausi vienet)\r\n        deadline = block.timestamp + (_durationInMinutes * 1 minutes);\r\n    }\r\n\r\n    // 3. Funkcija: Rmimas (Investavimas)\r\n    function contribute() public payable {\r\n        // Tikrinimai (Validation)\r\n        require(block.timestamp < deadline, \"Laikas baigesi, remti nebegalima.\");\r\n        require(msg.value > 0, \"Pervedama suma turi buti didesne nei 0.\");\r\n\r\n        // raome rmj  sra\r\n        if (contributors[msg.sender] == 0) {\r\n            // ia galtume skaiiuoti unikalius rmjus, jei reikt\r\n        }\r\n        \r\n        contributors[msg.sender] += msg.value; // Pridedame prie rmjo balanso\r\n        raisedAmount += msg.value;             // Atnaujiname bendr sum\r\n    }\r\n\r\n    // 4. Funkcija: Pinig imokjimas krjui (Skms atveju)\r\n    function withdraw() public {\r\n        require(msg.sender == manager, \"Tik projekto kurejas gali inicijuoti ismokejima.\");\r\n        require(raisedAmount >= targetAmount, \"Finansinis tikslas nepasiektas.\");\r\n        // Pastaba: Galima leisti isiimti ir anksiau, jei tikslas pasiektas, \r\n        // bet saugiau palaukti termino pabaigos arba tiesiog tikrinti sum.\r\n        \r\n        uint balance = address(this).balance;\r\n        payable(manager).transfer(balance); // Pervedame visus kontrakte esanius pinigus krjui\r\n    }\r\n\r\n    // 5. Funkcija: Pinig susigrinimas (Neskms atveju)\r\n    function getRefund() public {\r\n        // Leidiame grinti tik jei laikas baigsi IR tikslas nebuvo pasiektas\r\n        require(block.timestamp >= deadline, \"Kampanija dar vyksta.\");\r\n        require(raisedAmount < targetAmount, \"Tikslas pasiektas, grazinimas negalimas.\");\r\n        require(contributors[msg.sender] > 0, \"Jus nesate paremes sio projekto.\");\r\n\r\n        uint amountToRefund = contributors[msg.sender];\r\n        \r\n        // Saugumo praktika: Pirmiausia anuliuojame balans, tada pervedame (apsauga nuo Re-entrancy atak)\r\n        contributors[msg.sender] = 0; \r\n        \r\n        payable(msg.sender).transfer(amountToRefund);\r\n    }\r\n\r\n    // Pagalbin funkcija: likusio laiko patikrinimui (sekundmis)\r\n    function timeLeft() public view returns (uint) {\r\n        if (block.timestamp >= deadline) {\r\n            return 0;\r\n        } else {\r\n            return deadline - block.timestamp;\r\n        }\r\n    }\r\n}",
  "sourcePath": "C:\\Users\\matas\\Desktop\\BC-04\\contracts\\CrowdFunding.sol",
  "compiler": {
    "name": "solc",
    "version": "0.8.21+commit.d9974bed.Emscripten.clang"
  },
  "schemaVersion": "3.4.16",
  "updatedAt": "2025-12-01T09:36:08.533Z",
  "networkType": "ethereum",
  "devdoc": {
    "kind": "dev",
    "methods": {},
    "version": 1
  },
  "userdoc": {
    "kind": "user",
    "methods": {},
    "version": 1
  }
}